:100000000C9434000C9449000C9449000C94490061
:100010000C9449000C9449000C9449000C9449003C
:100020000C9449000C9449000C9449000C9449002C
:100030000C9449000C9449000C9449000C9449001C
:100040000C9449000C9449000C9449000C9449000C
:100050000C9449000C9449000C9449000C944900FC
:100060000C9449000C94490011241FBECFEFD8E036
:10007000DEBFCDBF11E0A0E0B1E0E2E2F1E002C0FE
:1000800005900D92A430B107D9F70E944D000C9451
:100090008F000C9400000000FFCF0E944F000F93D0
:1000A0001F9380E284B920E030E093E944E050E01F
:1000B00085B9B901F9010FC0A1706F5F7F4FEF4F94
:1000C000FF4F009102011091030100910001109176
:1000D0000101A03041F0A1E06F3D7907E407F50789
:1000E00058F3A12DE9CF15B8B901F90110C0A170DD
:1000F0006F5F7F4FEF4FFF4F00910201109103019F
:100100000091000110910101A03009F4D1CFA1E0CC
:100110006F3D7907E407F50750F3A12DE8CFF89478
:02012000FFCF0F
:0401220000000000D9
:00000001FF
