:100000000C9434000C943E000C943E000C943E0082
:100010000C943E000C943E000C943E000C943E0068
:100020000C943E000C943E000C943E000C943E0058
:100030000C943E000C943E000C943E000C943E0048
:100040000C943E000C943E000C943E000C943E0038
:100050000C943E000C943E000C943E000C943E0028
:100060000C943E000C943E0011241FBECFEFD8E04C
:10007000DEBFCDBF0E9441000C9466000C940000CE
:10008000FFCF0E94430080E284B91092C50087E64A
:100090008093C40088E18093C10086E08093C20011
:1000A0008091C0008823E2F78091C600803321F060
:1000B000813321F490E201C0912D95B99091C00057
:1000C00090729030D9F38093C600EACFF894FFCFB6
:00000001FF
