:100000000C9434000C9446000C9446000C9446006A
:100010000C9446000C9446000C9446000C94460048
:100020000C9446000C9446000C9446000C94460038
:100030000C9446000C9446000C9446000C94460028
:100040000C9446000C9446000C9446000C94460018
:100050000C9446000C9446000C9446000C94460008
:100060000C9446000C94460011241FBECFEFD8E03C
:10007000DEBFCDBF21E0A0E0B1E001C01D92A13004
:10008000B207E1F70E9449000C9464000C94000050
:10009000FFCF0E944B0080E284B981E099B1947057
:1000A0009030F1F390910001292F2827209300012F
:1000B0009030912D09F490E295B999B194709030F7
:0C00C00011F415B8EBCFFFCFF894FFCF80
:00000001FF
